{
  "address": "0x2C97a941dD7EE75C1DAF61523919f312d34ddbfF",
  "abi": [
    {
      "inputs": [
        {
          "internalType": "address",
          "name": "vrfCoordinatorV2",
          "type": "address"
        },
        {
          "internalType": "uint256",
          "name": "entranceFee",
          "type": "uint256"
        },
        {
          "internalType": "bytes32",
          "name": "gasLane",
          "type": "bytes32"
        },
        {
          "internalType": "uint256",
          "name": "subscriptionID",
          "type": "uint256"
        },
        {
          "internalType": "uint32",
          "name": "callbackGasLimit",
          "type": "uint32"
        },
        {
          "internalType": "uint256",
          "name": "interval",
          "type": "uint256"
        }
      ],
      "stateMutability": "nonpayable",
      "type": "constructor"
    },
    {
      "inputs": [],
      "name": "Lottery__NotEnoughETHEntered",
      "type": "error"
    },
    {
      "inputs": [],
      "name": "Lottery__NotOpen",
      "type": "error"
    },
    {
      "inputs": [],
      "name": "Lottery__TransferFailed",
      "type": "error"
    },
    {
      "inputs": [
        {
          "internalType": "uint256",
          "name": "currentBalance",
          "type": "uint256"
        },
        {
          "internalType": "uint256",
          "name": "numPlayers",
          "type": "uint256"
        },
        {
          "internalType": "uint256",
          "name": "lotteryState",
          "type": "uint256"
        }
      ],
      "name": "Lottery__UpkeepNotNeeded",
      "type": "error"
    },
    {
      "inputs": [
        {
          "internalType": "address",
          "name": "have",
          "type": "address"
        },
        {
          "internalType": "address",
          "name": "want",
          "type": "address"
        }
      ],
      "name": "OnlyCoordinatorCanFulfill",
      "type": "error"
    },
    {
      "inputs": [
        {
          "internalType": "address",
          "name": "have",
          "type": "address"
        },
        {
          "internalType": "address",
          "name": "owner",
          "type": "address"
        },
        {
          "internalType": "address",
          "name": "coordinator",
          "type": "address"
        }
      ],
      "name": "OnlyOwnerOrCoordinator",
      "type": "error"
    },
    {
      "inputs": [],
      "name": "ZeroAddress",
      "type": "error"
    },
    {
      "anonymous": false,
      "inputs": [
        {
          "indexed": false,
          "internalType": "address",
          "name": "vrfCoordinator",
          "type": "address"
        }
      ],
      "name": "CoordinatorSet",
      "type": "event"
    },
    {
      "anonymous": false,
      "inputs": [
        {
          "indexed": true,
          "internalType": "address",
          "name": "from",
          "type": "address"
        },
        {
          "indexed": true,
          "internalType": "address",
          "name": "to",
          "type": "address"
        }
      ],
      "name": "OwnershipTransferRequested",
      "type": "event"
    },
    {
      "anonymous": false,
      "inputs": [
        {
          "indexed": true,
          "internalType": "address",
          "name": "from",
          "type": "address"
        },
        {
          "indexed": true,
          "internalType": "address",
          "name": "to",
          "type": "address"
        }
      ],
      "name": "OwnershipTransferred",
      "type": "event"
    },
    {
      "anonymous": false,
      "inputs": [
        {
          "indexed": true,
          "internalType": "uint256",
          "name": "requestId",
          "type": "uint256"
        }
      ],
      "name": "RequestedLotteryWinner",
      "type": "event"
    },
    {
      "anonymous": false,
      "inputs": [
        {
          "indexed": true,
          "internalType": "address",
          "name": "winner",
          "type": "address"
        }
      ],
      "name": "WinnerPicked",
      "type": "event"
    },
    {
      "anonymous": false,
      "inputs": [
        {
          "indexed": true,
          "internalType": "address",
          "name": "player",
          "type": "address"
        }
      ],
      "name": "lotteryEnter",
      "type": "event"
    },
    {
      "inputs": [],
      "name": "acceptOwnership",
      "outputs": [],
      "stateMutability": "nonpayable",
      "type": "function"
    },
    {
      "inputs": [
        {
          "internalType": "bytes",
          "name": "",
          "type": "bytes"
        }
      ],
      "name": "checkUpkeep",
      "outputs": [
        {
          "internalType": "bool",
          "name": "upkeepNeeded",
          "type": "bool"
        },
        {
          "internalType": "bytes",
          "name": "",
          "type": "bytes"
        }
      ],
      "stateMutability": "view",
      "type": "function"
    },
    {
      "inputs": [],
      "name": "enterLottery",
      "outputs": [],
      "stateMutability": "payable",
      "type": "function"
    },
    {
      "inputs": [],
      "name": "getEntranceFee",
      "outputs": [
        {
          "internalType": "uint256",
          "name": "",
          "type": "uint256"
        }
      ],
      "stateMutability": "view",
      "type": "function"
    },
    {
      "inputs": [],
      "name": "getInterval",
      "outputs": [
        {
          "internalType": "uint256",
          "name": "",
          "type": "uint256"
        }
      ],
      "stateMutability": "view",
      "type": "function"
    },
    {
      "inputs": [],
      "name": "getLatestTimeStamp",
      "outputs": [
        {
          "internalType": "uint256",
          "name": "",
          "type": "uint256"
        }
      ],
      "stateMutability": "view",
      "type": "function"
    },
    {
      "inputs": [],
      "name": "getLotteryState",
      "outputs": [
        {
          "internalType": "enum Lottery.LotteryState",
          "name": "",
          "type": "uint8"
        }
      ],
      "stateMutability": "view",
      "type": "function"
    },
    {
      "inputs": [],
      "name": "getNumWords",
      "outputs": [
        {
          "internalType": "uint256",
          "name": "",
          "type": "uint256"
        }
      ],
      "stateMutability": "pure",
      "type": "function"
    },
    {
      "inputs": [],
      "name": "getNumberofPlayers",
      "outputs": [
        {
          "internalType": "uint256",
          "name": "",
          "type": "uint256"
        }
      ],
      "stateMutability": "view",
      "type": "function"
    },
    {
      "inputs": [
        {
          "internalType": "uint256",
          "name": "index",
          "type": "uint256"
        }
      ],
      "name": "getPlayers",
      "outputs": [
        {
          "internalType": "address",
          "name": "",
          "type": "address"
        }
      ],
      "stateMutability": "view",
      "type": "function"
    },
    {
      "inputs": [],
      "name": "getRecentWinner",
      "outputs": [
        {
          "internalType": "address",
          "name": "",
          "type": "address"
        }
      ],
      "stateMutability": "view",
      "type": "function"
    },
    {
      "inputs": [],
      "name": "getRequestConfirmations",
      "outputs": [
        {
          "internalType": "uint256",
          "name": "",
          "type": "uint256"
        }
      ],
      "stateMutability": "pure",
      "type": "function"
    },
    {
      "inputs": [],
      "name": "owner",
      "outputs": [
        {
          "internalType": "address",
          "name": "",
          "type": "address"
        }
      ],
      "stateMutability": "view",
      "type": "function"
    },
    {
      "inputs": [
        {
          "internalType": "bytes",
          "name": "",
          "type": "bytes"
        }
      ],
      "name": "performUpkeep",
      "outputs": [],
      "stateMutability": "nonpayable",
      "type": "function"
    },
    {
      "inputs": [
        {
          "internalType": "uint256",
          "name": "requestId",
          "type": "uint256"
        },
        {
          "internalType": "uint256[]",
          "name": "randomWords",
          "type": "uint256[]"
        }
      ],
      "name": "rawFulfillRandomWords",
      "outputs": [],
      "stateMutability": "nonpayable",
      "type": "function"
    },
    {
      "inputs": [],
      "name": "s_vrfCoordinator",
      "outputs": [
        {
          "internalType": "contract IVRFCoordinatorV2Plus",
          "name": "",
          "type": "address"
        }
      ],
      "stateMutability": "view",
      "type": "function"
    },
    {
      "inputs": [
        {
          "internalType": "address",
          "name": "_vrfCoordinator",
          "type": "address"
        }
      ],
      "name": "setCoordinator",
      "outputs": [],
      "stateMutability": "nonpayable",
      "type": "function"
    },
    {
      "inputs": [
        {
          "internalType": "address",
          "name": "to",
          "type": "address"
        }
      ],
      "name": "transferOwnership",
      "outputs": [],
      "stateMutability": "nonpayable",
      "type": "function"
    }
  ],
  "transactionHash": "0x5bedba1cdda85bcc433fd154865893b8bfc95fa8e5e24a02b86d0f4754cec235",
  "args": [
    "0x9DdfaCa8183c41ad55329BdeeD9F6A8d53168B1B",
    "10000000000000000",
    "0x787d74caea10b2b357790d5b5247c2f63d1d91572a9846f780606e4d953677ae",
    "68100362298346987800871468142060627973274977821716681150925326892874952234867",
    "5000000",
    "30"
  ],
  "numDeployments": 4,
  "solcInputHash": "9f41dd1854d6e9ff44ef457d74b9e4a7",
  "bytecode": "0x6101206040523480156200001257600080fd5b506040516200298b3803806200298b8339818101604052810190620000389190620004ad565b85338060008073ffffffffffffffffffffffffffffffffffffffff168273ffffffffffffffffffffffffffffffffffffffff161415620000af576040517f08c379a0000000000000000000000000000000000000000000000000000000008152600401620000a690620005aa565b60405180910390fd5b816000806101000a81548173ffffffffffffffffffffffffffffffffffffffff021916908373ffffffffffffffffffffffffffffffffffffffff160217905550600073ffffffffffffffffffffffffffffffffffffffff168173ffffffffffffffffffffffffffffffffffffffff1614620001365762000135816200025c60201b60201c565b5b505050600073ffffffffffffffffffffffffffffffffffffffff168173ffffffffffffffffffffffffffffffffffffffff161415620001a1576040517fd92e233d00000000000000000000000000000000000000000000000000000000815260040160405180910390fd5b80600260006101000a81548173ffffffffffffffffffffffffffffffffffffffff021916908373ffffffffffffffffffffffffffffffffffffffff1602179055505084608081815250508360a081815250508260c081815250508163ffffffff1660e08163ffffffff1660e01b815250506000600460146101000a81548160ff021916908360018111156200023b576200023a620005cc565b5b0217905550426005819055508061010081815250505050505050506200066d565b3373ffffffffffffffffffffffffffffffffffffffff168173ffffffffffffffffffffffffffffffffffffffff161415620002ce576040517f08c379a0000000000000000000000000000000000000000000000000000000008152600401620002c5906200064b565b60405180910390fd5b80600160006101000a81548173ffffffffffffffffffffffffffffffffffffffff021916908373ffffffffffffffffffffffffffffffffffffffff1602179055508073ffffffffffffffffffffffffffffffffffffffff1660008054906101000a900473ffffffffffffffffffffffffffffffffffffffff1673ffffffffffffffffffffffffffffffffffffffff167fed8889f560326eb138920d842192f0eb3dd22b4f139c87a2c57538e05bae127860405160405180910390a350565b600080fd5b600073ffffffffffffffffffffffffffffffffffffffff82169050919050565b6000620003be8262000391565b9050919050565b620003d081620003b1565b8114620003dc57600080fd5b50565b600081519050620003f081620003c5565b92915050565b6000819050919050565b6200040b81620003f6565b81146200041757600080fd5b50565b6000815190506200042b8162000400565b92915050565b6000819050919050565b620004468162000431565b81146200045257600080fd5b50565b60008151905062000466816200043b565b92915050565b600063ffffffff82169050919050565b62000487816200046c565b81146200049357600080fd5b50565b600081519050620004a7816200047c565b92915050565b60008060008060008060c08789031215620004cd57620004cc6200038c565b5b6000620004dd89828a01620003df565b9650506020620004f089828a016200041a565b95505060406200050389828a0162000455565b94505060606200051689828a016200041a565b93505060806200052989828a0162000496565b92505060a06200053c89828a016200041a565b9150509295509295509295565b600082825260208201905092915050565b7f43616e6e6f7420736574206f776e657220746f207a65726f0000000000000000600082015250565b60006200059260188362000549565b91506200059f826200055a565b602082019050919050565b60006020820190508181036000830152620005c58162000583565b9050919050565b7f4e487b7100000000000000000000000000000000000000000000000000000000600052602160045260246000fd5b7f43616e6e6f74207472616e7366657220746f2073656c66000000000000000000600082015250565b60006200063360178362000549565b91506200064082620005fb565b602082019050919050565b60006020820190508181036000830152620006668162000624565b9050919050565b60805160a05160c05160e05160e01c610100516122c8620006c36000396000818161096d0152610db601526000610706015260006106d5015260006106af0152600081816104000152610e0201526122c86000f3fe6080604052600436106101095760003560e01c80636b68c03c116100955780638ea98117116100645780638ea981171461034a57806391ad27b4146103735780639eccacf61461039e578063c1af5785146103c9578063f2fde38b146103d357610109565b80636b68c03c1461029f5780636e04ff0d146102ca57806379ba5097146103085780638da5cb5b1461031f57610109565b8063460e2049116100dc578063460e2049146101b6578063473f1ddc146101f357806349a706ce1461021e57806353a2c19a146102495780635f1b0fd81461027457610109565b806309bc33a71461010e5780631fe543e314610139578063320229eb146101625780634585e33b1461018d575b600080fd5b34801561011a57600080fd5b506101236103fc565b60405161013091906116ea565b60405180910390f35b34801561014557600080fd5b50610160600480360381019061015b91906117aa565b610424565b005b34801561016e57600080fd5b506101776104ea565b60405161018491906116ea565b60405180910390f35b34801561019957600080fd5b506101b460048036038101906101af9190611860565b6104f4565b005b3480156101c257600080fd5b506101dd60048036038101906101d891906118ad565b610879565b6040516101ea919061191b565b60405180910390f35b3480156101ff57600080fd5b506102086108c1565b604051610215919061191b565b60405180910390f35b34801561022a57600080fd5b506102336108eb565b60405161024091906116ea565b60405180910390f35b34801561025557600080fd5b5061025e6108f8565b60405161026b91906116ea565b60405180910390f35b34801561028057600080fd5b50610289610907565b60405161029691906116ea565b60405180910390f35b3480156102ab57600080fd5b506102b4610914565b6040516102c191906119ad565b60405180910390f35b3480156102d657600080fd5b506102f160048036038101906102ec9190611b09565b61092b565b6040516102ff929190611bf5565b60405180910390f35b34801561031457600080fd5b5061031d610a12565b005b34801561032b57600080fd5b50610334610ba7565b604051610341919061191b565b60405180910390f35b34801561035657600080fd5b50610371600480360381019061036c9190611c51565b610bd0565b005b34801561037f57600080fd5b50610388610db2565b60405161039591906116ea565b60405180910390f35b3480156103aa57600080fd5b506103b3610dda565b6040516103c09190611cdd565b60405180910390f35b6103d1610e00565b005b3480156103df57600080fd5b506103fa60048036038101906103f59190611c51565b610f6f565b005b60007f0000000000000000000000000000000000000000000000000000000000000000905090565b600260009054906101000a900473ffffffffffffffffffffffffffffffffffffffff1673ffffffffffffffffffffffffffffffffffffffff163373ffffffffffffffffffffffffffffffffffffffff16146104da5733600260009054906101000a900473ffffffffffffffffffffffffffffffffffffffff166040517f1cf993f40000000000000000000000000000000000000000000000000000000081526004016104d1929190611cf8565b60405180910390fd5b6104e5838383610f83565b505050565b6000600554905090565b6105326040518060400160405280600181526020017f31000000000000000000000000000000000000000000000000000000000000008152506112ec565b600061054c6040518060200160405280600081525061092b565b509050806105bb5747600380549050600460149054906101000a900460ff16600181111561057d5761057c611936565b5b6040517f6e195f250000000000000000000000000000000000000000000000000000000081526004016105b293929190611d21565b60405180910390fd5b6105f96040518060400160405280600181526020017f32000000000000000000000000000000000000000000000000000000000000008152506112ec565b6001600460146101000a81548160ff0219169083600181111561061f5761061e611936565b5b02179055506106626040518060400160405280600181526020017f33000000000000000000000000000000000000000000000000000000000000008152506112ec565b6000600260009054906101000a900473ffffffffffffffffffffffffffffffffffffffff1673ffffffffffffffffffffffffffffffffffffffff16639b1c385e6040518060c001604052807f000000000000000000000000000000000000000000000000000000000000000081526020017f00000000000000000000000000000000000000000000000000000000000000008152602001600361ffff1681526020017f000000000000000000000000000000000000000000000000000000000000000063ffffffff168152602001600163ffffffff168152602001610757604051806020016040528060011515815250611385565b8152506040518263ffffffff1660e01b81526004016107769190611e8f565b602060405180830381600087803b15801561079057600080fd5b505af11580156107a4573d6000803e3d6000fd5b505050506040513d601f19601f820116820180604052508101906107c89190611ec6565b90506108086040518060400160405280600181526020017f34000000000000000000000000000000000000000000000000000000000000008152506112ec565b807febf56642252004c18a776f30d528e7a0ce8c5db14b6596fb6550f630c8a24c6c60405160405180910390a26108736040518060400160405280600181526020017f35000000000000000000000000000000000000000000000000000000000000008152506112ec565b50505050565b60006003828154811061088f5761088e611ef3565b5b9060005260206000200160009054906101000a900473ffffffffffffffffffffffffffffffffffffffff169050919050565b6000600460009054906101000a900473ffffffffffffffffffffffffffffffffffffffff16905090565b6000600380549050905090565b6000600163ffffffff16905090565b6000600361ffff16905090565b6000600460149054906101000a900460ff16905090565b60006060600080600181111561094457610943611936565b5b600460149054906101000a900460ff16600181111561096657610965611936565b5b14905060007f00000000000000000000000000000000000000000000000000000000000000006005544261099a9190611f51565b119050600080600380549050119050600080471190508380156109ba5750825b80156109c35750815b80156109cc5750805b9550856040518060400160405280600381526020017f30783000000000000000000000000000000000000000000000000000000000008152509550955050505050915091565b600160009054906101000a900473ffffffffffffffffffffffffffffffffffffffff1673ffffffffffffffffffffffffffffffffffffffff163373ffffffffffffffffffffffffffffffffffffffff1614610aa2576040517f08c379a0000000000000000000000000000000000000000000000000000000008152600401610a9990611fe2565b60405180910390fd5b60008060009054906101000a900473ffffffffffffffffffffffffffffffffffffffff169050336000806101000a81548173ffffffffffffffffffffffffffffffffffffffff021916908373ffffffffffffffffffffffffffffffffffffffff1602179055506000600160006101000a81548173ffffffffffffffffffffffffffffffffffffffff021916908373ffffffffffffffffffffffffffffffffffffffff1602179055503373ffffffffffffffffffffffffffffffffffffffff168173ffffffffffffffffffffffffffffffffffffffff167f8be0079c531659141344cd1fd0a4f28419497f9722a3daafe3b4186f6b6457e060405160405180910390a350565b60008060009054906101000a900473ffffffffffffffffffffffffffffffffffffffff16905090565b610bd8610ba7565b73ffffffffffffffffffffffffffffffffffffffff163373ffffffffffffffffffffffffffffffffffffffff1614158015610c615750600260009054906101000a900473ffffffffffffffffffffffffffffffffffffffff1673ffffffffffffffffffffffffffffffffffffffff163373ffffffffffffffffffffffffffffffffffffffff1614155b15610cd05733610c6f610ba7565b600260009054906101000a900473ffffffffffffffffffffffffffffffffffffffff166040517f061db9c1000000000000000000000000000000000000000000000000000000008152600401610cc793929190612002565b60405180910390fd5b600073ffffffffffffffffffffffffffffffffffffffff168173ffffffffffffffffffffffffffffffffffffffff161415610d37576040517fd92e233d00000000000000000000000000000000000000000000000000000000815260040160405180910390fd5b80600260006101000a81548173ffffffffffffffffffffffffffffffffffffffff021916908373ffffffffffffffffffffffffffffffffffffffff1602179055507fd1a6a14209a385a964d036e404cb5cfb71f4000cdb03c9366292430787261be681604051610da7919061191b565b60405180910390a150565b60007f0000000000000000000000000000000000000000000000000000000000000000905090565b600260009054906101000a900473ffffffffffffffffffffffffffffffffffffffff1681565b7f0000000000000000000000000000000000000000000000000000000000000000341015610e5a576040517fec269fd100000000000000000000000000000000000000000000000000000000815260040160405180910390fd5b60006001811115610e6e57610e6d611936565b5b600460149054906101000a900460ff166001811115610e9057610e8f611936565b5b14610ec7576040517fe76be6fc00000000000000000000000000000000000000000000000000000000815260040160405180910390fd5b6003339080600181540180825580915050600190039060005260206000200160009091909190916101000a81548173ffffffffffffffffffffffffffffffffffffffff021916908373ffffffffffffffffffffffffffffffffffffffff1602179055503373ffffffffffffffffffffffffffffffffffffffff167f6ba87006f2c53f2d227d45b3400034f16dbf4f6842816c4880d30170f3a6a16060405160405180910390a2565b610f7761141d565b610f80816114ad565b50565b600060038054905083836000818110610f9f57610f9e611ef3565b5b90506020020135610fb09190612068565b9050600060038281548110610fc857610fc7611ef3565b5b9060005260206000200160009054906101000a900473ffffffffffffffffffffffffffffffffffffffff16905080600460006101000a81548173ffffffffffffffffffffffffffffffffffffffff021916908373ffffffffffffffffffffffffffffffffffffffff1602179055506110746040518060400160405280600381526020017f31313100000000000000000000000000000000000000000000000000000000008152506112ec565b6000600460146101000a81548160ff0219169083600181111561109a57611099611936565b5b0217905550600067ffffffffffffffff8111156110ba576110b96119de565b5b6040519080825280602002602001820160405280156110e85781602001602082028036833780820191505090505b50600390805190602001906110fe929190611620565b50426005819055506111446040518060400160405280600381526020017f31313200000000000000000000000000000000000000000000000000000000008152506112ec565b60008173ffffffffffffffffffffffffffffffffffffffff164760405161116a906120ca565b60006040518083038185875af1925050503d80600081146111a7576040519150601f19603f3d011682016040523d82523d6000602084013e6111ac565b606091505b505090506111ee6040518060400160405280600381526020017f31313300000000000000000000000000000000000000000000000000000000008152506112ec565b80611225576040517f1c94012000000000000000000000000000000000000000000000000000000000815260040160405180910390fd5b6112636040518060400160405280600381526020017f31313400000000000000000000000000000000000000000000000000000000008152506112ec565b8173ffffffffffffffffffffffffffffffffffffffff167f5b690ec4a06fe979403046eaeea5b3ce38524683c3001f662c8b5a829632f7df60405160405180910390a26112e46040518060400160405280600381526020017f31313500000000000000000000000000000000000000000000000000000000008152506112ec565b505050505050565b611382816040516024016113009190612123565b6040516020818303038152906040527f41304fac000000000000000000000000000000000000000000000000000000007bffffffffffffffffffffffffffffffffffffffffffffffffffffffff19166020820180517bffffffffffffffffffffffffffffffffffffffffffffffffffffffff83818316178352505050506115da565b50565b60607f92fd13387c7fe7befbc38d303d6468778fb9731bc4583f17d92989c6fcfdeaaa826040516024016113b99190612170565b604051602081830303815290604052907bffffffffffffffffffffffffffffffffffffffffffffffffffffffff19166020820180517bffffffffffffffffffffffffffffffffffffffffffffffffffffffff83818316178352505050509050919050565b60008054906101000a900473ffffffffffffffffffffffffffffffffffffffff1673ffffffffffffffffffffffffffffffffffffffff163373ffffffffffffffffffffffffffffffffffffffff16146114ab576040517f08c379a00000000000000000000000000000000000000000000000000000000081526004016114a2906121d7565b60405180910390fd5b565b3373ffffffffffffffffffffffffffffffffffffffff168173ffffffffffffffffffffffffffffffffffffffff16141561151c576040517f08c379a000000000000000000000000000000000000000000000000000000000815260040161151390612243565b60405180910390fd5b80600160006101000a81548173ffffffffffffffffffffffffffffffffffffffff021916908373ffffffffffffffffffffffffffffffffffffffff1602179055508073ffffffffffffffffffffffffffffffffffffffff1660008054906101000a900473ffffffffffffffffffffffffffffffffffffffff1673ffffffffffffffffffffffffffffffffffffffff167fed8889f560326eb138920d842192f0eb3dd22b4f139c87a2c57538e05bae127860405160405180910390a350565b6115f1816115e96115f4611615565b63ffffffff16565b50565b60006a636f6e736f6c652e6c6f679050600080835160208501845afa505050565b6116aa819050919050565b828054828255906000526020600020908101928215611699579160200282015b828111156116985782518260006101000a81548173ffffffffffffffffffffffffffffffffffffffff021916908373ffffffffffffffffffffffffffffffffffffffff16021790555091602001919060010190611640565b5b5090506116a691906116b4565b5090565b6116b2612263565b565b5b808211156116cd5760008160009055506001016116b5565b5090565b6000819050919050565b6116e4816116d1565b82525050565b60006020820190506116ff60008301846116db565b92915050565b6000604051905090565b600080fd5b600080fd5b611722816116d1565b811461172d57600080fd5b50565b60008135905061173f81611719565b92915050565b600080fd5b600080fd5b600080fd5b60008083601f84011261176a57611769611745565b5b8235905067ffffffffffffffff8111156117875761178661174a565b5b6020830191508360208202830111156117a3576117a261174f565b5b9250929050565b6000806000604084860312156117c3576117c261170f565b5b60006117d186828701611730565b935050602084013567ffffffffffffffff8111156117f2576117f1611714565b5b6117fe86828701611754565b92509250509250925092565b60008083601f8401126118205761181f611745565b5b8235905067ffffffffffffffff81111561183d5761183c61174a565b5b6020830191508360018202830111156118595761185861174f565b5b9250929050565b600080602083850312156118775761187661170f565b5b600083013567ffffffffffffffff81111561189557611894611714565b5b6118a18582860161180a565b92509250509250929050565b6000602082840312156118c3576118c261170f565b5b60006118d184828501611730565b91505092915050565b600073ffffffffffffffffffffffffffffffffffffffff82169050919050565b6000611905826118da565b9050919050565b611915816118fa565b82525050565b6000602082019050611930600083018461190c565b92915050565b7f4e487b7100000000000000000000000000000000000000000000000000000000600052602160045260246000fd5b6002811061197657611975611936565b5b50565b600081905061198782611965565b919050565b600061199782611979565b9050919050565b6119a78161198c565b82525050565b60006020820190506119c2600083018461199e565b92915050565b600080fd5b6000601f19601f8301169050919050565b7f4e487b7100000000000000000000000000000000000000000000000000000000600052604160045260246000fd5b611a16826119cd565b810181811067ffffffffffffffff82111715611a3557611a346119de565b5b80604052505050565b6000611a48611705565b9050611a548282611a0d565b919050565b600067ffffffffffffffff821115611a7457611a736119de565b5b611a7d826119cd565b9050602081019050919050565b82818337600083830152505050565b6000611aac611aa784611a59565b611a3e565b905082815260208101848484011115611ac857611ac76119c8565b5b611ad3848285611a8a565b509392505050565b600082601f830112611af057611aef611745565b5b8135611b00848260208601611a99565b91505092915050565b600060208284031215611b1f57611b1e61170f565b5b600082013567ffffffffffffffff811115611b3d57611b3c611714565b5b611b4984828501611adb565b91505092915050565b60008115159050919050565b611b6781611b52565b82525050565b600081519050919050565b600082825260208201905092915050565b60005b83811015611ba7578082015181840152602081019050611b8c565b83811115611bb6576000848401525b50505050565b6000611bc782611b6d565b611bd18185611b78565b9350611be1818560208601611b89565b611bea816119cd565b840191505092915050565b6000604082019050611c0a6000830185611b5e565b8181036020830152611c1c8184611bbc565b90509392505050565b611c2e816118fa565b8114611c3957600080fd5b50565b600081359050611c4b81611c25565b92915050565b600060208284031215611c6757611c6661170f565b5b6000611c7584828501611c3c565b91505092915050565b6000819050919050565b6000611ca3611c9e611c99846118da565b611c7e565b6118da565b9050919050565b6000611cb582611c88565b9050919050565b6000611cc782611caa565b9050919050565b611cd781611cbc565b82525050565b6000602082019050611cf26000830184611cce565b92915050565b6000604082019050611d0d600083018561190c565b611d1a602083018461190c565b9392505050565b6000606082019050611d3660008301866116db565b611d4360208301856116db565b611d5060408301846116db565b949350505050565b6000819050919050565b611d6b81611d58565b82525050565b611d7a816116d1565b82525050565b600061ffff82169050919050565b611d9781611d80565b82525050565b600063ffffffff82169050919050565b611db681611d9d565b82525050565b600082825260208201905092915050565b6000611dd882611b6d565b611de28185611dbc565b9350611df2818560208601611b89565b611dfb816119cd565b840191505092915050565b600060c083016000830151611e1e6000860182611d62565b506020830151611e316020860182611d71565b506040830151611e446040860182611d8e565b506060830151611e576060860182611dad565b506080830151611e6a6080860182611dad565b5060a083015184820360a0860152611e828282611dcd565b9150508091505092915050565b60006020820190508181036000830152611ea98184611e06565b905092915050565b600081519050611ec081611719565b92915050565b600060208284031215611edc57611edb61170f565b5b6000611eea84828501611eb1565b91505092915050565b7f4e487b7100000000000000000000000000000000000000000000000000000000600052603260045260246000fd5b7f4e487b7100000000000000000000000000000000000000000000000000000000600052601160045260246000fd5b6000611f5c826116d1565b9150611f67836116d1565b925082821015611f7a57611f79611f22565b5b828203905092915050565b600082825260208201905092915050565b7f4d7573742062652070726f706f736564206f776e657200000000000000000000600082015250565b6000611fcc601683611f85565b9150611fd782611f96565b602082019050919050565b60006020820190508181036000830152611ffb81611fbf565b9050919050565b6000606082019050612017600083018661190c565b612024602083018561190c565b612031604083018461190c565b949350505050565b7f4e487b7100000000000000000000000000000000000000000000000000000000600052601260045260246000fd5b6000612073826116d1565b915061207e836116d1565b92508261208e5761208d612039565b5b828206905092915050565b600081905092915050565b50565b60006120b4600083612099565b91506120bf826120a4565b600082019050919050565b60006120d5826120a7565b9150819050919050565b600081519050919050565b60006120f5826120df565b6120ff8185611f85565b935061210f818560208601611b89565b612118816119cd565b840191505092915050565b6000602082019050818103600083015261213d81846120ea565b905092915050565b61214e81611b52565b82525050565b60208201600082015161216a6000850182612145565b50505050565b60006020820190506121856000830184612154565b92915050565b7f4f6e6c792063616c6c61626c65206279206f776e657200000000000000000000600082015250565b60006121c1601683611f85565b91506121cc8261218b565b602082019050919050565b600060208201905081810360008301526121f0816121b4565b9050919050565b7f43616e6e6f74207472616e7366657220746f2073656c66000000000000000000600082015250565b600061222d601783611f85565b9150612238826121f7565b602082019050919050565b6000602082019050818103600083015261225c81612220565b9050919050565b7f4e487b7100000000000000000000000000000000000000000000000000000000600052605160045260246000fdfea264697066735822122028df0be4ff47c33e03954a1c84c7cde58816b7c1025b4d7c5cadf308a71be66764736f6c63430008080033",
  "devdoc": {
    "author": "Nabeel Ahmed",
    "details": "This contract implements Chainlink VRF V2 and Chainlink Keepers",
    "kind": "dev",
    "methods": {
      "checkUpkeep(bytes)": {
        "details": "This is the function that the ChainLink Keeper nodes call They look for the 'upKeepNeeded' to return true The following should be true in order to return true 1. Our specified time interval should have passed 2. The lottery should have at least one player, and have some ETH 3. Our subscription is funded with Link 4. The lottery should be in an \"open\" state i.e. when we are waiting for the random number, we should not allow new players So, we should make a state variable for the above purpose"
      }
    },
    "title": "A sample Lottery Contract",
    "version": 1
  },
  "userdoc": {
    "kind": "user",
    "methods": {
      "acceptOwnership()": {
        "notice": "Allows an ownership transfer to be completed by the recipient."
      },
      "owner()": {
        "notice": "Get the current owner"
      },
      "setCoordinator(address)": {
        "notice": "Sets the VRF Coordinator addressThis method should only be callable by the coordinator or contract owner"
      },
      "transferOwnership(address)": {
        "notice": "Allows an owner to begin transferring ownership to a new address."
      }
    },
    "notice": "This contract is for implementing an untamperable and decentralized smart lottery",
    "version": 1
  },
  "storageLayout": {
    "storage": [
      {
        "astId": 48,
        "contract": "contracts/Lottery.sol:Lottery",
        "label": "s_owner",
        "offset": 0,
        "slot": "0",
        "type": "t_address"
      },
      {
        "astId": 50,
        "contract": "contracts/Lottery.sol:Lottery",
        "label": "s_pendingOwner",
        "offset": 0,
        "slot": "1",
        "type": "t_address"
      },
      {
        "astId": 250,
        "contract": "contracts/Lottery.sol:Lottery",
        "label": "s_vrfCoordinator",
        "offset": 0,
        "slot": "2",
        "type": "t_contract(IVRFCoordinatorV2Plus)399"
      },
      {
        "astId": 579,
        "contract": "contracts/Lottery.sol:Lottery",
        "label": "s_players",
        "offset": 0,
        "slot": "3",
        "type": "t_array(t_address_payable)dyn_storage"
      },
      {
        "astId": 593,
        "contract": "contracts/Lottery.sol:Lottery",
        "label": "s_recentWinner",
        "offset": 0,
        "slot": "4",
        "type": "t_address"
      },
      {
        "astId": 596,
        "contract": "contracts/Lottery.sol:Lottery",
        "label": "s_lotteryState",
        "offset": 20,
        "slot": "4",
        "type": "t_enum(LotteryState)574"
      },
      {
        "astId": 598,
        "contract": "contracts/Lottery.sol:Lottery",
        "label": "s_lastTimeStamp",
        "offset": 0,
        "slot": "5",
        "type": "t_uint256"
      }
    ],
    "types": {
      "t_address": {
        "encoding": "inplace",
        "label": "address",
        "numberOfBytes": "20"
      },
      "t_address_payable": {
        "encoding": "inplace",
        "label": "address payable",
        "numberOfBytes": "20"
      },
      "t_array(t_address_payable)dyn_storage": {
        "base": "t_address_payable",
        "encoding": "dynamic_array",
        "label": "address payable[]",
        "numberOfBytes": "32"
      },
      "t_contract(IVRFCoordinatorV2Plus)399": {
        "encoding": "inplace",
        "label": "contract IVRFCoordinatorV2Plus",
        "numberOfBytes": "20"
      },
      "t_enum(LotteryState)574": {
        "encoding": "inplace",
        "label": "enum Lottery.LotteryState",
        "numberOfBytes": "1"
      },
      "t_uint256": {
        "encoding": "inplace",
        "label": "uint256",
        "numberOfBytes": "32"
      }
    }
  }
}