{
  "address": "0xB867A8d55806965128637a2c3B9f613019aA6c27",
  "abi": [
    {
      "inputs": [
        {
          "internalType": "address",
          "name": "vrfCoordinatorV2",
          "type": "address"
        },
        {
          "internalType": "uint256",
          "name": "entranceFee",
          "type": "uint256"
        },
        {
          "internalType": "bytes32",
          "name": "gasLane",
          "type": "bytes32"
        },
        {
          "internalType": "uint256",
          "name": "subscriptionID",
          "type": "uint256"
        },
        {
          "internalType": "uint32",
          "name": "callbackGasLimit",
          "type": "uint32"
        },
        {
          "internalType": "uint256",
          "name": "interval",
          "type": "uint256"
        }
      ],
      "stateMutability": "nonpayable",
      "type": "constructor"
    },
    {
      "inputs": [],
      "name": "Lottery__NotEnoughETHEntered",
      "type": "error"
    },
    {
      "inputs": [],
      "name": "Lottery__NotOpen",
      "type": "error"
    },
    {
      "inputs": [],
      "name": "Lottery__TransferFailed",
      "type": "error"
    },
    {
      "inputs": [
        {
          "internalType": "uint256",
          "name": "currentBalance",
          "type": "uint256"
        },
        {
          "internalType": "uint256",
          "name": "numPlayers",
          "type": "uint256"
        },
        {
          "internalType": "uint256",
          "name": "lotteryState",
          "type": "uint256"
        }
      ],
      "name": "Lottery__UpkeepNotNeeded",
      "type": "error"
    },
    {
      "inputs": [
        {
          "internalType": "address",
          "name": "have",
          "type": "address"
        },
        {
          "internalType": "address",
          "name": "want",
          "type": "address"
        }
      ],
      "name": "OnlyCoordinatorCanFulfill",
      "type": "error"
    },
    {
      "anonymous": false,
      "inputs": [
        {
          "indexed": true,
          "internalType": "uint256",
          "name": "requestId",
          "type": "uint256"
        }
      ],
      "name": "RequestedLotteryWinner",
      "type": "event"
    },
    {
      "anonymous": false,
      "inputs": [
        {
          "indexed": true,
          "internalType": "address",
          "name": "winner",
          "type": "address"
        }
      ],
      "name": "WinnerPicked",
      "type": "event"
    },
    {
      "anonymous": false,
      "inputs": [
        {
          "indexed": true,
          "internalType": "address",
          "name": "player",
          "type": "address"
        }
      ],
      "name": "lotteryEnter",
      "type": "event"
    },
    {
      "inputs": [
        {
          "internalType": "bytes",
          "name": "",
          "type": "bytes"
        }
      ],
      "name": "checkUpkeep",
      "outputs": [
        {
          "internalType": "bool",
          "name": "upkeepNeeded",
          "type": "bool"
        },
        {
          "internalType": "bytes",
          "name": "",
          "type": "bytes"
        }
      ],
      "stateMutability": "nonpayable",
      "type": "function"
    },
    {
      "inputs": [],
      "name": "enterLottery",
      "outputs": [],
      "stateMutability": "payable",
      "type": "function"
    },
    {
      "inputs": [],
      "name": "getEntranceFee",
      "outputs": [
        {
          "internalType": "uint256",
          "name": "",
          "type": "uint256"
        }
      ],
      "stateMutability": "view",
      "type": "function"
    },
    {
      "inputs": [],
      "name": "getInterval",
      "outputs": [
        {
          "internalType": "uint256",
          "name": "",
          "type": "uint256"
        }
      ],
      "stateMutability": "view",
      "type": "function"
    },
    {
      "inputs": [],
      "name": "getLatestTimeStamp",
      "outputs": [
        {
          "internalType": "uint256",
          "name": "",
          "type": "uint256"
        }
      ],
      "stateMutability": "view",
      "type": "function"
    },
    {
      "inputs": [],
      "name": "getLotteryState",
      "outputs": [
        {
          "internalType": "enum Lottery.LotteryState",
          "name": "",
          "type": "uint8"
        }
      ],
      "stateMutability": "view",
      "type": "function"
    },
    {
      "inputs": [],
      "name": "getNumWords",
      "outputs": [
        {
          "internalType": "uint256",
          "name": "",
          "type": "uint256"
        }
      ],
      "stateMutability": "pure",
      "type": "function"
    },
    {
      "inputs": [],
      "name": "getNumberofPlayers",
      "outputs": [
        {
          "internalType": "uint256",
          "name": "",
          "type": "uint256"
        }
      ],
      "stateMutability": "view",
      "type": "function"
    },
    {
      "inputs": [
        {
          "internalType": "uint256",
          "name": "index",
          "type": "uint256"
        }
      ],
      "name": "getPlayers",
      "outputs": [
        {
          "internalType": "address",
          "name": "",
          "type": "address"
        }
      ],
      "stateMutability": "view",
      "type": "function"
    },
    {
      "inputs": [],
      "name": "getRecentWinner",
      "outputs": [
        {
          "internalType": "address",
          "name": "",
          "type": "address"
        }
      ],
      "stateMutability": "view",
      "type": "function"
    },
    {
      "inputs": [],
      "name": "getRequestConfirmations",
      "outputs": [
        {
          "internalType": "uint256",
          "name": "",
          "type": "uint256"
        }
      ],
      "stateMutability": "pure",
      "type": "function"
    },
    {
      "inputs": [
        {
          "internalType": "bytes",
          "name": "",
          "type": "bytes"
        }
      ],
      "name": "performUpkeep",
      "outputs": [],
      "stateMutability": "nonpayable",
      "type": "function"
    },
    {
      "inputs": [
        {
          "internalType": "uint256",
          "name": "requestId",
          "type": "uint256"
        },
        {
          "internalType": "uint256[]",
          "name": "randomWords",
          "type": "uint256[]"
        }
      ],
      "name": "rawFulfillRandomWords",
      "outputs": [],
      "stateMutability": "nonpayable",
      "type": "function"
    }
  ],
  "transactionHash": "0x62bc2ad362954440b8bec98669bd8780c032bf0a9e56d17a1974d2a4c74c37d8",
  "args": [
    "0x9DdfaCa8183c41ad55329BdeeD9F6A8d53168B1B",
    "10000000000000000",
    "0x787d74caea10b2b357790d5b5247c2f63d1d91572a9846f780606e4d953677ae",
    "68100362298346987800871468142060627973274977821716681150925326892874952234867",
    "500000",
    "30"
  ],
  "numDeployments": 2,
  "solcInputHash": "5c9de30b5cc70b2cf79e4e715d891c6d",
  "bytecode": "0x6101606040523480156200001257600080fd5b50604051620017d2380380620017d2833981810160405281019062000038919062000244565b858073ffffffffffffffffffffffffffffffffffffffff1660808173ffffffffffffffffffffffffffffffffffffffff1660601b81525050508460a081815250508573ffffffffffffffffffffffffffffffffffffffff166101208173ffffffffffffffffffffffffffffffffffffffff1660601b815250508360c081815250508260e081815250508163ffffffff166101008163ffffffff1660e01b815250506000600160146101000a81548160ff02191690836001811115620001025762000101620002e0565b5b0217905550426002819055508061014081815250505050505050506200030f565b600080fd5b600073ffffffffffffffffffffffffffffffffffffffff82169050919050565b6000620001558262000128565b9050919050565b620001678162000148565b81146200017357600080fd5b50565b60008151905062000187816200015c565b92915050565b6000819050919050565b620001a2816200018d565b8114620001ae57600080fd5b50565b600081519050620001c28162000197565b92915050565b6000819050919050565b620001dd81620001c8565b8114620001e957600080fd5b50565b600081519050620001fd81620001d2565b92915050565b600063ffffffff82169050919050565b6200021e8162000203565b81146200022a57600080fd5b50565b6000815190506200023e8162000213565b92915050565b60008060008060008060c0878903121562000264576200026362000123565b5b60006200027489828a0162000176565b96505060206200028789828a01620001b1565b95505060406200029a89828a01620001ec565b9450506060620002ad89828a01620001b1565b9350506080620002c089828a016200022d565b92505060a0620002d389828a01620001b1565b9150509295509295509295565b7f4e487b7100000000000000000000000000000000000000000000000000000000600052602160045260246000fd5b60805160601c60a05160c05160e0516101005160e01c6101205160601c6101405161144a62000388600039600081816106d901526107470152600061049f0152600061051f015260006104fc015260006104db0152600081816102fa015261076d0152600081816103200152610374015261144a6000f3fe6080604052600436106100c25760003560e01c806349a706ce1161007f5780636b68c03c116100595780636b68c03c146102585780636e04ff0d1461028357806391ad27b4146102c1578063c1af5785146102ec576100c2565b806349a706ce146101d757806353a2c19a146102025780635f1b0fd81461022d576100c2565b806309bc33a7146100c75780631fe543e3146100f2578063320229eb1461011b5780634585e33b14610146578063460e20491461016f578063473f1ddc146101ac575b600080fd5b3480156100d357600080fd5b506100dc6102f6565b6040516100e99190610bcb565b60405180910390f35b3480156100fe57600080fd5b5061011960048036038101906101149190610d7f565b61031e565b005b34801561012757600080fd5b506101306103de565b60405161013d9190610bcb565b60405180910390f35b34801561015257600080fd5b5061016d60048036038101906101689190610e36565b6103e8565b005b34801561017b57600080fd5b5061019660048036038101906101919190610e83565b6105e7565b6040516101a39190610ef1565b60405180910390f35b3480156101b857600080fd5b506101c161062e565b6040516101ce9190610ef1565b60405180910390f35b3480156101e357600080fd5b506101ec610658565b6040516101f99190610bcb565b60405180910390f35b34801561020e57600080fd5b50610217610664565b6040516102249190610bcb565b60405180910390f35b34801561023957600080fd5b50610242610673565b60405161024f9190610bcb565b60405180910390f35b34801561026457600080fd5b5061026d610680565b60405161027a9190610f83565b60405180910390f35b34801561028f57600080fd5b506102aa60048036038101906102a59190611053565b610697565b6040516102b892919061113f565b60405180910390f35b3480156102cd57600080fd5b506102d6610743565b6040516102e39190610bcb565b60405180910390f35b6102f461076b565b005b60007f0000000000000000000000000000000000000000000000000000000000000000905090565b7f000000000000000000000000000000000000000000000000000000000000000073ffffffffffffffffffffffffffffffffffffffff163373ffffffffffffffffffffffffffffffffffffffff16146103d057337f00000000000000000000000000000000000000000000000000000000000000006040517f1cf993f40000000000000000000000000000000000000000000000000000000081526004016103c792919061116f565b60405180910390fd5b6103da82826108da565b5050565b6000600254905090565b600061040260405180602001604052806000815250610697565b509050806104715747600080549050600160149054906101000a900460ff16600181111561043357610432610f0c565b5b6040517f6e195f2500000000000000000000000000000000000000000000000000000000815260040161046893929190611198565b60405180910390fd5b60018060146101000a81548160ff0219169083600181111561049657610495610f0c565b5b021790555060007f000000000000000000000000000000000000000000000000000000000000000073ffffffffffffffffffffffffffffffffffffffff16635d3b1d307f00000000000000000000000000000000000000000000000000000000000000007f000000000000000000000000000000000000000000000000000000000000000060037f000000000000000000000000000000000000000000000000000000000000000060016040518663ffffffff1660e01b8152600401610560959493929190611247565b602060405180830381600087803b15801561057a57600080fd5b505af115801561058e573d6000803e3d6000fd5b505050506040513d601f19601f820116820180604052508101906105b291906112af565b9050807febf56642252004c18a776f30d528e7a0ce8c5db14b6596fb6550f630c8a24c6c60405160405180910390a250505050565b60008082815481106105fc576105fb6112dc565b5b9060005260206000200160009054906101000a900473ffffffffffffffffffffffffffffffffffffffff169050919050565b6000600160009054906101000a900473ffffffffffffffffffffffffffffffffffffffff16905090565b60008080549050905090565b6000600163ffffffff16905090565b6000600361ffff16905090565b6000600160149054906101000a900460ff16905090565b6000606060008060018111156106b0576106af610f0c565b5b600160149054906101000a900460ff1660018111156106d2576106d1610f0c565b5b14905060007f000000000000000000000000000000000000000000000000000000000000000060025442610706919061133a565b119050600080600080549050119050600080471190508380156107265750825b801561072f5750815b80156107385750805b955050505050915091565b60007f0000000000000000000000000000000000000000000000000000000000000000905090565b7f00000000000000000000000000000000000000000000000000000000000000003410156107c5576040517fec269fd100000000000000000000000000000000000000000000000000000000815260040160405180910390fd5b600060018111156107d9576107d8610f0c565b5b600160149054906101000a900460ff1660018111156107fb576107fa610f0c565b5b14610832576040517fe76be6fc00000000000000000000000000000000000000000000000000000000815260040160405180910390fd5b6000339080600181540180825580915050600190039060005260206000200160009091909190916101000a81548173ffffffffffffffffffffffffffffffffffffffff021916908373ffffffffffffffffffffffffffffffffffffffff1602179055503373ffffffffffffffffffffffffffffffffffffffff167f6ba87006f2c53f2d227d45b3400034f16dbf4f6842816c4880d30170f3a6a16060405160405180910390a2565b60008080549050826000815181106108f5576108f46112dc565b5b6020026020010151610907919061139d565b9050600080828154811061091e5761091d6112dc565b5b9060005260206000200160009054906101000a900473ffffffffffffffffffffffffffffffffffffffff16905080600160006101000a81548173ffffffffffffffffffffffffffffffffffffffff021916908373ffffffffffffffffffffffffffffffffffffffff1602179055506000600160146101000a81548160ff021916908360018111156109b2576109b1610f0c565b5b0217905550600067ffffffffffffffff8111156109d2576109d1610c3c565b5b604051908082528060200260200182016040528015610a005781602001602082028036833780820191505090505b5060009080519060200190610a16929190610b0b565b504260028190555060008173ffffffffffffffffffffffffffffffffffffffff1647604051610a44906113ff565b60006040518083038185875af1925050503d8060008114610a81576040519150601f19603f3d011682016040523d82523d6000602084013e610a86565b606091505b5050905080610ac1576040517f1c94012000000000000000000000000000000000000000000000000000000000815260040160405180910390fd5b8173ffffffffffffffffffffffffffffffffffffffff167f5b690ec4a06fe979403046eaeea5b3ce38524683c3001f662c8b5a829632f7df60405160405180910390a25050505050565b828054828255906000526020600020908101928215610b84579160200282015b82811115610b835782518260006101000a81548173ffffffffffffffffffffffffffffffffffffffff021916908373ffffffffffffffffffffffffffffffffffffffff16021790555091602001919060010190610b2b565b5b509050610b919190610b95565b5090565b5b80821115610bae576000816000905550600101610b96565b5090565b6000819050919050565b610bc581610bb2565b82525050565b6000602082019050610be06000830184610bbc565b92915050565b6000604051905090565b600080fd5b600080fd5b610c0381610bb2565b8114610c0e57600080fd5b50565b600081359050610c2081610bfa565b92915050565b600080fd5b6000601f19601f8301169050919050565b7f4e487b7100000000000000000000000000000000000000000000000000000000600052604160045260246000fd5b610c7482610c2b565b810181811067ffffffffffffffff82111715610c9357610c92610c3c565b5b80604052505050565b6000610ca6610be6565b9050610cb28282610c6b565b919050565b600067ffffffffffffffff821115610cd257610cd1610c3c565b5b602082029050602081019050919050565b600080fd5b6000610cfb610cf684610cb7565b610c9c565b90508083825260208201905060208402830185811115610d1e57610d1d610ce3565b5b835b81811015610d475780610d338882610c11565b845260208401935050602081019050610d20565b5050509392505050565b600082601f830112610d6657610d65610c26565b5b8135610d76848260208601610ce8565b91505092915050565b60008060408385031215610d9657610d95610bf0565b5b6000610da485828601610c11565b925050602083013567ffffffffffffffff811115610dc557610dc4610bf5565b5b610dd185828601610d51565b9150509250929050565b600080fd5b60008083601f840112610df657610df5610c26565b5b8235905067ffffffffffffffff811115610e1357610e12610ddb565b5b602083019150836001820283011115610e2f57610e2e610ce3565b5b9250929050565b60008060208385031215610e4d57610e4c610bf0565b5b600083013567ffffffffffffffff811115610e6b57610e6a610bf5565b5b610e7785828601610de0565b92509250509250929050565b600060208284031215610e9957610e98610bf0565b5b6000610ea784828501610c11565b91505092915050565b600073ffffffffffffffffffffffffffffffffffffffff82169050919050565b6000610edb82610eb0565b9050919050565b610eeb81610ed0565b82525050565b6000602082019050610f066000830184610ee2565b92915050565b7f4e487b7100000000000000000000000000000000000000000000000000000000600052602160045260246000fd5b60028110610f4c57610f4b610f0c565b5b50565b6000819050610f5d82610f3b565b919050565b6000610f6d82610f4f565b9050919050565b610f7d81610f62565b82525050565b6000602082019050610f986000830184610f74565b92915050565b600080fd5b600067ffffffffffffffff821115610fbe57610fbd610c3c565b5b610fc782610c2b565b9050602081019050919050565b82818337600083830152505050565b6000610ff6610ff184610fa3565b610c9c565b90508281526020810184848401111561101257611011610f9e565b5b61101d848285610fd4565b509392505050565b600082601f83011261103a57611039610c26565b5b813561104a848260208601610fe3565b91505092915050565b60006020828403121561106957611068610bf0565b5b600082013567ffffffffffffffff81111561108757611086610bf5565b5b61109384828501611025565b91505092915050565b60008115159050919050565b6110b18161109c565b82525050565b600081519050919050565b600082825260208201905092915050565b60005b838110156110f15780820151818401526020810190506110d6565b83811115611100576000848401525b50505050565b6000611111826110b7565b61111b81856110c2565b935061112b8185602086016110d3565b61113481610c2b565b840191505092915050565b600060408201905061115460008301856110a8565b81810360208301526111668184611106565b90509392505050565b60006040820190506111846000830185610ee2565b6111916020830184610ee2565b9392505050565b60006060820190506111ad6000830186610bbc565b6111ba6020830185610bbc565b6111c76040830184610bbc565b949350505050565b6000819050919050565b6111e2816111cf565b82525050565b600067ffffffffffffffff82169050919050565b611205816111e8565b82525050565b600061ffff82169050919050565b6112228161120b565b82525050565b600063ffffffff82169050919050565b61124181611228565b82525050565b600060a08201905061125c60008301886111d9565b61126960208301876111fc565b6112766040830186611219565b6112836060830185611238565b6112906080830184611238565b9695505050505050565b6000815190506112a981610bfa565b92915050565b6000602082840312156112c5576112c4610bf0565b5b60006112d38482850161129a565b91505092915050565b7f4e487b7100000000000000000000000000000000000000000000000000000000600052603260045260246000fd5b7f4e487b7100000000000000000000000000000000000000000000000000000000600052601160045260246000fd5b600061134582610bb2565b915061135083610bb2565b9250828210156113635761136261130b565b5b828203905092915050565b7f4e487b7100000000000000000000000000000000000000000000000000000000600052601260045260246000fd5b60006113a882610bb2565b91506113b383610bb2565b9250826113c3576113c261136e565b5b828206905092915050565b600081905092915050565b50565b60006113e96000836113ce565b91506113f4826113d9565b600082019050919050565b600061140a826113dc565b915081905091905056fea2646970667358221220b211685e0be29a7a414f3282b7d40720031b48fca881a0cca6491c31c80e869364736f6c63430008080033",
  "devdoc": {
    "author": "Nabeel Ahmed",
    "details": "This contract implements Chainlink VRF V2 and Chainlink Keepers",
    "kind": "dev",
    "methods": {
      "checkUpkeep(bytes)": {
        "details": "This is the function that the ChainLink Keeper nodes call They look for the 'upKeepNeeded' to return true The following should be true in order to return true 1. Our specified time interval should have passed 2. The lottery should have at least one player, and have some ETH 3. Our subscription is funded with Link 4. The lottery should be in an \"open\" state i.e. when we are waiting for the random number, we should not allow new players So, we should make a state variable for the above purpose"
      }
    },
    "title": "A sample Lottery Contract",
    "version": 1
  },
  "userdoc": {
    "kind": "user",
    "methods": {},
    "notice": "This contract is for implementing an untamperable and decentralized smart lottery",
    "version": 1
  },
  "storageLayout": {
    "storage": [
      {
        "astId": 204,
        "contract": "contracts/Lottery.sol:Lottery",
        "label": "s_players",
        "offset": 0,
        "slot": "0",
        "type": "t_array(t_address_payable)dyn_storage"
      },
      {
        "astId": 221,
        "contract": "contracts/Lottery.sol:Lottery",
        "label": "s_recentWinner",
        "offset": 0,
        "slot": "1",
        "type": "t_address"
      },
      {
        "astId": 224,
        "contract": "contracts/Lottery.sol:Lottery",
        "label": "s_lotteryState",
        "offset": 20,
        "slot": "1",
        "type": "t_enum(LotteryState)199"
      },
      {
        "astId": 226,
        "contract": "contracts/Lottery.sol:Lottery",
        "label": "s_lastTimeStamp",
        "offset": 0,
        "slot": "2",
        "type": "t_uint256"
      }
    ],
    "types": {
      "t_address": {
        "encoding": "inplace",
        "label": "address",
        "numberOfBytes": "20"
      },
      "t_address_payable": {
        "encoding": "inplace",
        "label": "address payable",
        "numberOfBytes": "20"
      },
      "t_array(t_address_payable)dyn_storage": {
        "base": "t_address_payable",
        "encoding": "dynamic_array",
        "label": "address payable[]",
        "numberOfBytes": "32"
      },
      "t_enum(LotteryState)199": {
        "encoding": "inplace",
        "label": "enum Lottery.LotteryState",
        "numberOfBytes": "1"
      },
      "t_uint256": {
        "encoding": "inplace",
        "label": "uint256",
        "numberOfBytes": "32"
      }
    }
  }
}